:020000040800F2
:10600000B0560020C1620008C9620008CB620008D7
:10601000CD620008CF620008D162000800000000D5
:10602000000000000000000000000000D362000833
:10603000D562000800000000D7620008D96200089D
:10604000DB620008DB620008DB620008DB6200083C
:10605000DB620008DB620008DB620008DB6200082C
:10606000DB620008DB620008DB620008DB6200081C
:10607000DB620008DB620008DB620008DB6200080C
:10608000DB620008DB620008DB620008DB620008FC
:10609000DB620008DB620008DB620008DB620008EC
:1060A000DB620008DB620008DB620008DB620008DC
:1060B000DB620008DB620008FDB60008DB62000856
:1060C000DB620008DB620008DB620008DB620008BC
:1060D000DB62000895BB0008DB620008DB62000899
:1060E000DB620008DB620008DB620008DB6200089C
:1060F000DB620008DB620008DB620008DB6200088C
:10610000DB620008DB620008DB620008DB6200087B
:10611000DB620008DB620008DB620008DB6200086B
:10612000DB620008DB620008DB620008DB6200085B
:1061300000F002F800F0B4F80AA090E8000C8244E5
:106140008344AAF10107DA4501D100F0A9F8AFF2C2
:10615000090EBAE80F0013F0010F18BFFB1A43F045
:1061600001031847FCF300001CF400000A444FF040
:10617000000C10F8013B13F0070408BF10F8014BA6
:106180001D1108BF10F8015B641E05D010F8016BEB
:10619000641E01F8016BF9D113F0080F1EBF10F84F
:1061A000014BAD1C0C1B09D16D1E58BF01F801CB72
:1061B000FAD505E014F8016B01F8016B6D1EF9D5F5
:1061C0009142D6D37047000000230024002500260A
:1061D000103A28BF78C1FBD8520728BF30C148BF4A
:1061E0000B6070476E2900F03F85702900F08986AA
:1061F00066290DF0E18565290DF0DE8567290DF032
:10620000DB8561290DF0DA8503681B0A28BF41F0A0
:106210008001692900F07281642900F06F8175297D
:1062200000F06C816F2900F01686782900F0558601
:10623000E92900F0B185E42900F0AE85F52900F0E8
:10624000AB85EF2900F01386F82900F05486036827
:10625000DB0928BF41F08001632901F0078373291E
:1062600001F00C83E32901F01783F32901F01C836B
:10627000002070471FB59DE8030000F0F9FB00F017
:10628000F1FE0400002000210CF0C0FE401C606004
:10629000002000210CF0D0FEE0601FBD10B510BD45
:1062A00001F05CFB1146FFF7E5FF09F059FC01F036
:1062B000A9FE03B4FFF7F2FF03BC01F019FF0000D1
:1062C0000948804709480047FEE7FEE7FEE7FEE78A
:1062D000FEE7FEE7FEE7FEE7FEE7FEE704480549C6
:1062E000054A064B7047000035B6000831610008CA
:1062F000B0260020B0560020B0460020B046002056
:1063000070B5064600F094FB056806F10B0020F01E
:106310000704B4429CBF002070BD2B466A68BAB126
:106320001068A04210D304F1080188423CBF5068B5
:10633000586007D35168101941601168091B01604A
:1063400058601460101D70BD13465268002AE7D1D2
:106350002146284600F078FB0028DED170BD70B5DC
:106360000446051F00F064FB0068002C14BF44685D
:1063700070BD002C18BFAC423CBF20466468F8D307
:1063800001680A18AA4218BF456003D12A68054669
:106390001144016028684119A1421CBF6C6070BDA6
:1063A0006168696021680844286070BD53EA020C86
:1063B00000F069802DE9F04B4FF00006002B1FBF65
:1063C000B3FA83F503FA05F424FA05F65E4012BF2A
:1063D0001643B2FA82F502FA05F4C5F120051EBF94
:1063E00022FA05FC44EA0C04203556EA044C4FEA34
:1063F000144418BF641C4FF000084FF0000990428D
:1064000071EB030C39D3002919BFB1FA81F701FAF6
:1064100007F6B0FA80F700FA07F6C7F120071EBFAB
:1064200020FA07FC46EA0C062037B6FBF4FCA7EB83
:106430000507103F07F01F0BCBF120060CFA0BFBF2
:106440002CFA06F644BFB3460026202FA4BF5E46B2
:106450004FF0000B5BEA060C08BF4FF0010B19EB85
:106460000B09ABFB027C48EB0608C01B06FB02CC09
:106470000BFB03CC71EB0C01C1E70B460246414616
:106480004846BDE8F08B13B54FF000004FF0000117
:10649000AFF30080BDE81C40704700007CB51D468E
:1064A00016460C00009001D02044401E074B7B4450
:1064B0002A4669460190304600F0EFFB05461CB1C4
:1064C0000020694600F0FCFB28467CBD190800004E
:1064D0000FB41CB5084B06AA7B446946009005988A
:1064E00000F0DBFB04460020694600F0E9FB204693
:1064F0001CBC5DF814FB0000E50700002DE9F0412D
:106500000646002410687529314616A510D000F003
:1065100017FB002802DA404213A507E031688A071A
:1065200001D512A502E0490704D511A5012401E017
:1065300000F00FFB00210A2206F1240709E0B0FB5E
:10654000F2FCB0FBF2F302FB1C003030785418462A
:10655000491C0028F3D123462A463046BDE8F041C5
:1065600000F029BB000000002D0000002B000000FF
:10657000200000002DE9F05F894604464FF0000A34
:10658000DFF874B1FB44C0F820A02046E1688847DA
:10659000002874D0252806D0D4E901219047206A2C
:1065A000401C2062F1E700265F462046E1688847EC
:1065B0002028054607DB312D05D2781910F8200C6C
:1065C00008B10643F1E7B00701D526F00406C4F888
:1065D0001CA00027C4F818A02A2D09D0284605F0D1
:1065E000A4FC38B304EB8708303DC8F8185019E014
:1065F00059F8041B204604EB87029161E168884743
:10660000012F054618D1E069002820DA26F020067F
:106610001DE0D8F8180000EB800005EB4000303892
:10662000C8F818002046E1688847054605F07DFC5B
:106630000028EED1012F0AD02E2D08D12046E16886
:1066400088477F1C0546022F46F02006C4DBA06960
:10665000002803DA404246F00106A061F00701D0AD
:1066600026F010066C2D0BD0682D09D04C2D39D09A
:106670006A2D35D0742D35D07A2D33D016E038E020
:10668000E1682F4620468847B842054609D16C2F5D
:1066900026D04FF48060E1680643204688470546CF
:1066A00004E06C2F1AD04FF4807006430DB3A5F1AF
:1066B0004100192802D8203546F400664A4629468A
:1066C000204626604E46FFF78DFD80B101280BD095
:1066D000F61D26F0070000F1080956E74020E4E720
:1066E0008020D8E70020D6E706F104094DE72846C8
:1066F00052E7206ABDE8F09F80E400002DE9F047F2
:1067000091460F4680460446002614F8015B2DB1E1
:1067100000F086F90068405DC007F6D12B2D02D04D
:106720002D2D18D0641E4A463946204600F0F4FB51
:1067300027B13968A14201D1C7F800804FF00204A7
:1067400071050BD54042002803DD00F075F90460A7
:10675000A007BDE8F08746F48066E4E70028F8DA91
:1067600000F06AF904606FF00040F2E7401ECAB220
:1067700010F8011F8A4202D00029F9D10020704789
:1067800030B505460B462A4613F8014B12F8010BAB
:1067900008B1A042F8D01CB1002802D06D1CF1E76E
:1067A000284630BD40EA010310B59B070FD1042AEB
:1067B0000DD310C808C9121F9C42F8D020BA19BACC
:1067C000884201D9012010BD4FF0FF3010BD1AB131
:1067D000D30703D0521C07E0002010BD10F8013B86
:1067E00011F8014B1B1B07D110F8013B11F8014BAD
:1067F0001B1B01D1921EF1D1184610BD40EA0103C6
:10680000024630B59B0710D14FF0013400E008C2BA
:1068100008C91D1B9D4315EAC41FF8D013F0FF01E2
:1068200002F8011B0DD01B0AF8E711F8013B002B01
:1068300002F8013B05D011F8013B002B02F8013BA7
:10684000F3D130BD10B5431C02E010F8011B71B14B
:106850008107FAD14FF0013202C88C1A8C4314EA36
:10686000C211F9D0C01A0A0603D0C01E10BDC01A4A
:1068700010BD0A0401D0801E10BD0902FCD0401ECC
:1068800010BD421E12F8013F002BFBD111F8013B55
:10689000002B02F8013BF9D17047032A40F2308007
:1068A00010F0030C00F0158011F8013BBCF1020F51
:1068B000624498BF11F801CB00F8013B38BF11F8D2
:1068C000013BA2F1040298BF00F801CB38BF00F8E9
:1068D000013B11F0030300F02580083AC0F0088066
:1068E00051F8043B083A51F804CBA0E80810F5E74A
:1068F000121D5CBF51F8043B40F8043BAFF300802D
:10690000D20724BF11F8013B11F801CB48BF11F8A1
:10691000012B24BF00F8013B00F801CB48BF00F871
:10692000012B704710B5203AC0F00B80B1E8185029
:10693000203AA0E81850B1E81850A0E81850BFF469
:10694000F5AF5FEA027C24BFB1E81850A0E8185008
:1069500044BF18C918C0BDE810405FEA827C24BF5C
:1069600051F8043B40F8043B08BF7047D20728BFEA
:1069700031F8023B48BF11F8012B28BF20F8023B39
:1069800048BF00F8012B70474FF000020429C0F007
:10699000128010F0030C00F01B80CCF1040CBCF151
:1069A000020F18BF00F8012BA8BF20F8022BA1EBA3
:1069B0000C0100F00DB85FEAC17C24BF00F8012B88
:1069C00000F8012B48BF00F8012B70474FF0000280
:1069D00000B5134694469646203922BFA0E80C50D5
:1069E000A0E80C50B1F12001BFF4F7AF090728BFB0
:1069F000A0E80C5048BF0CC05DF804EB890028BF2C
:106A000040F8042B08BF704748BF20F8022B11F054
:106A1000804F18BF00F8012B7047704770477047D0
:106A200010B500F01FFB001D10BD00BFE1C5000048
:106A30000048704758260020004870475026002024
:106A4000704770477047704738B504460A460020C3
:106A50006946AFF30080002808BF38BD02460099A0
:106A6000204600F003FB012038BD012000F06EBF7E
:106A7000F8B5AFF30080054600200C46102000BF9B
:106A80000646A819A0420DD9324669460020AFF348
:106A90000080070008BF00F059FF0098A04218BF0F
:106AA0000546C419FFF7C4FF05600746F01D20F036
:106AB00007004619284600F00AF8B44208BFF8BD9E
:106AC000A21B31463868BDE8F84000F0CFBA00217B
:106AD0000160C0E9011070471020704710B5FFF742
:106AE000ABFF006810BD10B50446FFF7A5FF0460BA
:106AF00010BD70B5044685690068C10601D5302611
:106B000000E02026C00707D070BDD4E9012130463F
:106B10009047206A401C20626D1EF6D570BD70B58E
:106B2000044685690078C00707D170BDD4E901210A
:106B300020209047206A401C20626D1EF6D570BD53
:106B400009684A0501D540B27047C905FCD500B2B5
:106B5000704709684A0501D5C0B27047C905FCD520
:106B600080B2704770B50C460546012A05D02878DA
:106B7000800600D5EA69002302E0012305E05B1CE2
:106B8000934202D2E05C0028F9D1A869E618C01A45
:106B9000A861286A184428622846FFF7AAFF04E083
:106BA000D5E9012114F8010B9047B442F8D32846E7
:106BB000FFF7B5FF70BD2DE9F0470D4699469246A7
:106BC000044600F124080168880604D5E06921F034
:106BD0001001216000E00120A84201DD471B00E018
:106BE0000027A1697A1902EB0900081AA061207830
:106BF000C00602D42046FFF77CFF002608E0D4E957
:106C000001211AF806009047206A401C761C206279
:106C10004E45F4DB2078C0060AD52046FFF769FF11
:106C200006E0D4E9012130209047206A401C206210
:106C3000381EA7F10107F4DC07E0D4E9012118F8B8
:106C400005009047206A401C2062281EA5F101051E
:106C5000F3DC2046FFF763FF2078000602D5022010
:106C6000BDE8F0870120FBE711680268006A530560
:106C700001D508700AE0D30501D5088006E01306A7
:106C800003D5C217C1E9000200E008600120704787
:106C900001694A1C02610878704700B58FB0CDE9E0
:106CA00001310021059105497944CDE903101146D0
:106CB0006846FFF75FFC0FB000BD0000E5FFFFFF77
:106CC0000A6802F8010B0A607047D1E900239A4272
:106CD00002D2531C0B601070704700002DE9FF5F5B
:106CE00015468A460446DFF8AC80F8440027D8E908
:106CF00000103E46CDE9001010E03AF816106A4642
:106D000002A800F003FE411C07D02178890603D5B4
:106D1000E269391891420DD80744761C2078800624
:106D200002D5E069B84205DDAE42E6DB3AF816006E
:106D30000028E2D1A069C01BA0612046FFF7D9FE60
:106D4000D8E90010CDE90010002017E03AF818103B
:106D50006A4602A800F0DAFDB0F1FF3F81460BD091
:106D600000250DF1080B05E0D4E901211BF8050011
:106D700090476D1C4D45F7D308F10100B0428046A5
:106D8000E4DB206A384420622046FFF7C8FEBDE8F5
:106D9000FF9F00002EDD00002DE9F0418046D21D4E
:106DA00022F007020025D2E90002F52915A614D029
:106DB000011E72F1000106DA0023D0EB030063EB41
:106DC000020211A608E0D8F800108B0701D50FA623
:106DD00002E0490701D50EA601251146002408F15D
:106DE000240704E000F05CF930323A55641C50EAA4
:106DF0000102F7D12B46324621464046BDE8F0411C
:106E0000FFF7D9BE000000002D0000002B0000009D
:106E10002000000030B4002100F1240408E002F05A
:106E20000705D208303542EA4372DB086554491C35
:106E300052EA0305F3D10468002310A2250707D501
:106E4000A40600D421B1C46901230DA2641EC4614B
:106E500030BCFFF7B0BE10B5044621461068FFF7FE
:106E600078FE02462046BDE810400023D2E7D21D3E
:106E700022F00701D1E90023CCE700000000000068
:106E800030000000F0B40D460188090502D5214C00
:106E90007C4402E01F4C7C440E34002100F12406A7
:106EA00008E002F00F071209E75D42EA03721B09CE
:106EB0007754491C52EA0307F3D1027800231207E2
:106EC00004D5702D06D009B1022311342246F0BC3E
:106ED000FFF771BE01231034F8E770B504460D4684
:106EE00021461068FFF735FE024629462046BDE8D8
:106EF00070400023C6E7D21D22F00703D3E9002328
:106F0000C0E70368126843F0200303600823C361ED
:106F10000023B7E790DB00002DE9F05F82461546BD
:106F20008B4600270AF10104B9460078302801D0C9
:106F30009DB113E014F8010B0127782803D05828DD
:106F400001D045B10AE00DB1102D07D1002714F88A
:106F5000010B102502E0082500E00A250026B046B6
:106F60000EE005FB080005FB06F101271FFA80F87B
:106F700001EB1046B6F5803F00D3B94614F8010B7B
:106F8000294600F095FC0028EBDABBF1000F05D094
:106F90000FB1641E00E05446CBF80040B9F1000F79
:106FA00006D0FFF749FD02210160C81EBDE8F09F31
:106FB00048EA0640FAE700000FB4002300B589B0A4
:106FC0000CA900910B99CB60214B7B440693214B7C
:106FD0007B44079304236FF00042CDE901321E4A3F
:106FE0007A446B460892024600200CF049FF09B033
:106FF0005DF814FB70B506464FF0FF3015460C46A1
:10700000324686B00091CDE9010169460020049026
:1070100004A8FFF7D1FF02460498211825B108B152
:10702000084600E020462860049800280DD0002A79
:1070300002DD0098884208D03246081B6946009459
:10704000CDE9010404A8FFF7B7FF06B070BD00004A
:10705000FF080000170900004701000000487047C2
:1070600050260020004870477026002003464068E4
:107070008C46002818BF88423CBF03464068F8D3BE
:1070800018681844884207D00CF1030020F007006C
:10709000001D411A521A0146081D0A60FFF75FB928
:1070A00030B5B0F10A024FEA900E71F100034EEADA
:1070B000817EB0EB0E0061EB91014FEA101E4EEAAB
:1070C000017E10EB0E0041EB11114FEA102E4EEA3B
:1070D000016E10EB0E0041EB11214FEA104E4EEA0B
:1070E000014E10EB0E0041EB1141401841F100013F
:1070F0004FEAD00040EA41704FEAD10110EB800521
:107100004FEA810444EA907444EB01046D1944EBA6
:107110000404521BA3414FF0000348BF0A3200D5BC
:1071200030BD401C41F1000130BD10B50446FFF7F1
:1071300077FC0068005D00F0010010BD70472DE98C
:10714000FF4F0C461E464FF0FF378BB0D2E90001CF
:10715000DDF860800A908A46C1F30A5505B93D46BC
:10716000002108464FF00000BAF1000F00F4400083
:1071700005DA00EB80004FF4400101EA50004FEACD
:107180009059B9F1010F00DDB9460A9850EA4A005A
:107190000ED044F61050A5F2FF3545432F14B8F138
:1071A000000F1ED07542291E1EDDC9F100021CE031
:1071B000B8F1010F4FF0000001D0302103E0F2439D
:1071C00005E02154401CB042FBDB30460022002188
:1071D00021540B99C1F80880C1E900200FB0BDE827
:1071E000F08FBD1B6D1CDEE74A4600DA694206A837
:1071F00000F096FE06AB93E8070003AB83E80700B8
:1072000050460A9901F0D7F98DE80700A0F5005023
:107210001F3800900398002D0ADD42F21F014A46F4
:107220000844002303A90390684601F083FC09E0A9
:10723000A0F500504A461F38002303A90390684672
:1072400001F0A2FC8DE807000004000C03D04FF011
:10725000FF30410800E01046B8F1000F03D00022D3
:10726000009215461EE0751E05D4FFF719FF303257
:1072700062556D1EF9D5B3460122084302D00022A3
:107280007F1C04E02078302801D100227F1E002AD4
:10729000099784D01DE0112D07DAFFF701FF303286
:1072A00062556D1C50EA0102F5D1084302D00098E6
:1072B000C8B10EE00021681E05E0235C625C6354E7
:1072C0002254401E491C8142F7DBAB46A81B401EDE
:1072D0000990002004F80B000B98099AC0F8088068
:1072E000C0E9002B7AE711264FF0000857E72DE997
:1072F000F04F88460446D21D22F0070191B0D1E933
:107300000001CDE90A0104F07BFD02460B98C00F95
:1073100001D02D2007E02068810701D52B2002E055
:10732000202101EAC000032A099001D0072A05DBC9
:1073300003464146204600F037FB0BE120788006EB
:1073400001D5E06900E00620B8F1650F814606D05E
:10735000B8F1660F18D0B8F1670F70D131E0002096
:10736000B9F1110F009001DB112301E009F10103D4
:107370000AAA01A90CA8FFF7E2FEDDE90C700026BD
:1073800009F10105834647E001204B4600904FF08C
:1073900000470AAA01A90CA8FFF7D1FEDDE90DB04C
:1073A0000C995D46002610B909F101000D18B9EBE2
:1073B000050003D4C0F1FF3609F10105A5EB090072
:1073C0002BE0B9F1010F01DA4FF001090020B9F10A
:1073D000110F0090484601DD112300E003460AAA80
:1073E00001A90CA8FFF7ABFEDDE90C704D460026A5
:1073F0008346207800070AD4AB4500DA5D4601A831
:10740000012D04DD411911F8011C302907D04F4529
:1074100002DA17F1040F04DA012082460FE06D1E34
:10742000EEE7002F02DCED1B3E4403E0781CA8428F
:1074300000DD7D1CB81B00F1010A4FF000472078E9
:10744000000703D4AA4501DB4FF0FF3A0021B7F152
:10745000004F0DF143088DF8431024D002202B2358
:10746000002F01DA7F422D230A21021EA0F1010024
:1074700000DC5FB197FBF1FC97FBF1F201FB1C7C98
:1074800017460CF1300C08F801CDEEE7A8F1010029
:1074900003702188090501D5452100E06521A0F18F
:1074A000010800F8011C09980FA9A1EB0807FF1DAE
:1074B00000B10120411901EBEA70A1693844081AB2
:1074C000401EA0612078C00602D42046FFF711FBC1
:1074D000099828B1D4E901219047206A401C206214
:1074E0002078C00622D52046FFF703FB1EE0002EC1
:1074F00004DBB34502DD01A8805D00E03020D4E963
:1075000001219047206A401C2062761CAAF10100EC
:107510005FEA000A0AD1FFF7A5FDC0680168405C78
:10752000D4E901219047206A401C2062281EA5F161
:107530000105DCDC07E0D4E9012118F8010B9047D4
:10754000206A401C2062381EA7F10107F3DC2046A8
:10755000FFF7E5FA032011B041E600002DE9F04FF6
:1075600004460D46D21D22F0070089B0D0E90097ED
:107570004846394604F044FC0246F80F01D02D235A
:1075800007E02068810701D52B2302E0202101EAD2
:10759000C0038DF820300BB1012000E00020032A49
:1075A000824601D0072A04DB2946204600F0FCF978
:1075B0003FE12078800601D40D2500E0E569C7F39E
:1075C0000A560D2D49DA00214FEA175B08464FF0A5
:1075D0000000002F00F4400007DA00EB80004FF4B9
:1075E000400100EBD07001EA60008115012901DD46
:1075F0004FF0FF3100224FEA850CBCF1180F06D383
:107600001346ACF118004FF08052C24003E04FF433
:10761000801323FA0CF30CF10C0CBCF1200F04D3F3
:10762000ACF1200C09FA0CF001E007FA0CF000298B
:107630004FF0004801DD18B90FE00ED140450CD3E2
:1076400019EB02095F4121B9404502D19F4329EA64
:107650000209BBEB175F00D0761C2088000502D51D
:107660007B48784402E07A487844193808AA3023E5
:1076700002F80A30037C0AF10101002E0AF1020A25
:1076800053546A4602DC4FF0300101E04FF0310103
:107690004FF001088DF8001002D0A6F2FF3603E08B
:1076A00059EA470100D06B4E002D02DC2178090712
:1076B00004D54FF002082E218DF80110C446002198
:1076C0000BE0C7F303433F01C35C491C6D1E02F886
:1076D0000830052908F1010801DA002DF1DC00214C
:1076E0000CE000EB1973491C1B786D1E082902F889
:1076F00008304FEA091908F1010801DA002DF0DC21
:1077000021688B0602D516E0A8F10108E04505DDE9
:1077100002EB080313F8013C302BF5D0B8F1000F51
:1077200009DD02EB080313F8013C2E2B03D10907F6
:1077300001D4A8F10108002D05DD3E2102F8081052
:107740006D1E08F10108407C002E02F8080008F1C7
:10775000010804DA2D20764202F8080002E02B200E
:1077600002F808000A214FF47A70864208F10108F5
:107770000BDB96FBF0F3303302F8083096FBF0F3A6
:1077800008F1010800FB136601E0642E0CDB6420A5
:1077900096FBF0F3303302F8083096FBF0F308F173
:1077A000010800FB136601E00A2E06DB96FBF1F0F0
:1077B000303002F8080008F1010896FBF1F001FBF7
:1077C0001060303002F80800A16908F1010808EBE8
:1077D000050202EB0A00081AA0612078C00602D454
:1077E0002046FFF786F9216A08AE01EB0A00206205
:1077F00004E0D4E9012116F8010B9047BAF1010A1F
:10780000F7D22078C00602D52046FFF772F96E46FF
:1078100009E016F8010B3E280FD0D4E9012190476A
:10782000206A401C2062B8F10108F2D22046FFF71E
:1078300076F909B00320BDE8F08F206A2844206261
:1078400003E0D4E90121302090476D1EEBD3F8E727
:10785000F9D3000002FCFFFF10B5436913B1AFF389
:10786000008001E0FFF77EF9012010BD127800F1E1
:1078700024010A7000224A700122EDE711684FF0DE
:10788000FF32E9E710B5436913B1AFF3008001E0BF
:10789000FFF724FA012010BD128800F12401828430
:1078A0000022C2840122EDE711684FF0FF32E9E7C0
:1078B0003A2800D2303820F02002412A01D3A2F128
:1078C0003700884201D34FF0FF307047426842B121
:1078D000016811F8013B23B1521EC0E9001218469D
:1078E00070470121C160881E704742685AB1C36861
:1078F000016843B983688B4205D0491E521CC0E918
:107900000012002070474FF0FF30704770B51646E8
:107910000C460546FFF784F8036893F80101012837
:1079200006D0FF2C0FD8185D68B101202C7070BDF7
:10793000D3F807013246214603F2071303442846D1
:10794000BDE8704018474FF0FF3070BD10B500F033
:1079500067FBBDE8104000F05EBB70477546FFF75F
:107960007DFBAE4605006946534620F0070085467C
:1079700018B020B5FEF7B2FCBDE820404FF000067D
:107980004FF000074FF000084FF0000B21F0070107
:10799000AC46ACE8C009ACE8C009ACE8C009ACE84A
:1079A000C0098D46704700002DE9F0411F4604468E
:1079B00003260168072A01F4006004DB08B116A55C
:1079C00005E016A503E008B115A500E015A521F016
:1079D00010002060A069C01EA0610FB1401EA06110
:1079E0002046FFF786F84FB1D4E901213846904789
:1079F000206A401C2062C01C206206E0206AFAE770
:107A0000D4E9012115F8010B9047761EF8D22046E3
:107A1000FFF785F8BDE8F0814E414E006E616E00C3
:107A2000494E4600696E66002DE9FF4F06468BB051
:107A30000878FF2806D0491C2D2805D000244FF0D7
:107A4000000908E000200CE00124F8E709EB8903B5
:107A5000491C00EB43090878FF28F7D114B1C9F19C
:107A600000008146107800252C46AA4629462D287C
:107A700001D02B2804D1521C2D2813D0002082467F
:107A80008B461078FF280FD04FF0000C0A21521CB3
:107A9000A5FB017804FB018105FB0C11C5194BEB1B
:107AA0000104EEE70120EAE7002108464FF000005C
:107AB000BAF1000F02D000EB80004008C0F38157FC
:107AC000012F01DD4FF0FF370E9955EA040009EB55
:107AD00001080BD04FF0020918F5FA7F16DA4FEAC9
:107AE000CA70002F706008DD012007E04FEACA70FD
:107AF000C6E900B00FB0BDE8F08F00203060FEF79F
:107B00009BFFC0F800901821084616E0B8F5FA7FF0
:107B100018DD002F02DAF748784401E0F64878448F
:107B2000D0E90010C6E9001040EACA707060FEF7A4
:107B300083FFC0F80090142108460FB0BDE8F04F55
:107B40000CF037B9002108464FF00000B8F10001F1
:107B5000099002DAC7F1000200E03A4601DAC8F102
:107B6000000106A800F0DCF906AB93E8070003ABC0
:107B700083E8070044F23E005BEA040100905846A7
:107B800004D144F21E012C465D460091210C0904EB
:107B9000014306D10099240444EA15442D04103908
:107BA000009104F07F41014306D10099240244EA88
:107BB00015642D020839009104F07041014306D18B
:107BC0000099240144EA15742D01091F009104F065
:107BD0004041014306D10099A40044EA9574AD00E8
:107BE000891E009104F00041084304D100986D19EA
:107BF0006441401E00904FF001033A466846B8F1D8
:107C0000000FCDE9014503A902DD00F0D2FF01E03C
:107C100000F0A5FFBAF1000F04460D4601D084F034
:107C20000044002108464FF00000099940F2FF7718
:107C3000484010F00C0F07D124F00040284303D037
:107C4000C4F30A50B84212D1FEF7F6FEC0F8009015
:107C5000C4F30A50B8420AD1A8487844D0E90010C9
:107C6000C6E9001004F000410843706042E7C6E92D
:107C700000543FE72DE9FF4F1F464FF0000A4FF039
:107C8000FF38454691B0D7E90146CDF83CA0FFF753
:107C9000E9F9C0680168405C1090B96912986D1CE0
:107CA0008847396A814688470028F6D1B9F1FF3FF5
:107CB0000AD0002E24F4D06411DDB9F12B0F08D0C6
:107CC000B9F12D0F0BD102E0404615B013E744F493
:107CD0008064B96912986D1C8847761E81466005DC
:107CE00004A901D52D2000E02B20002E01F1010B6D
:107CF0000DF130088DF810003FDDB9F1690F08D0A3
:107D0000B9F1490F05D0B9F16E0F02D0B9F14E0F9C
:107D10001CD13B4601A8009580E85002DDE9121213
:107D20006FF002000CF0B0F8C11CCED10EE0B969C2
:107D300012986D1C884781461398761E44F400748F
:107D400005600F98401C002E0F9016DDB9F1300F22
:107D5000EDD0B9F1780F02D0B9F1580F0DD10F98CD
:107D600001280AD13B46CDE90054DDE91212001F7B
:107D700002960CF087F8C11CA7D1109989453ED115
:107D800044F0800406E01399681CAAF1010A44F447
:107D900000740860B9696D1C1298761E88473028F7
:107DA0008146F0D02BE01099894505D1200603D4F7
:107DB000761E44F0800418E0484604F0B6F808B394
:107DC000761E0DF123018B4544F4007408D2A9F10D
:107DD00030000BF8010B200607D5AAF1010003E0E3
:107DE000200602D40AF101008246A00502D51399AB
:107DF000681C0860B96912986D1C88478146002E7E
:107E0000D1DC53E0002E51DDB9F1650F02D0B9F19C
:107E1000450F4BD1A00549D5B9696D1C1298761E46
:107E200024F440748847002E81460CDD2B2804D0B2
:107E3000B9F12D0F07D144F48074B96912986D1C03
:107E40008847761E8146E00501D52D2100E02B21D3
:107E500008F8011BCDF8008021E0761E0DF13901F4
:107E6000884544F400740CD2A9F1300010F0FF00F2
:107E700088F8000002D10099884509D908F1010865
:107E800006E0E00501D51E4801E042F20F7082468F
:107E9000B96912986D1C8847814613980560002EB9
:107EA00004DD484604F041F80028D6D1F96912985B
:107EB0008847FF2053468BF8000088F80000002018
:107EC0000A900B9004AA0CA90AA8FFF7ADFDA00523
:107ED00002D46FF00100F8E614F0240F12D0E0078E
:107EE0001CD13868DDE90A12031D3B600068C0E957
:107EF000001213E06CDA00005EDA000022D9000004
:107F0000F1D8FFFF0AA9684603F09EFFE00705D1FC
:107F10003868009A011D3960006802602846D4E67E
:107F20002DE9F047814616468AB0354878440DC899
:107F30008DE80D0032487844801C03AC0DC884E8FD
:107F40000D0041F69B300844372190FBF1F290FB85
:107F5000F1F5A5F1800501FB12041B3C02D564423A
:107F6000012000E00020DFF898A080460027FA44B6
:107F7000AAF1BE0A0EE0E0070AD03246684607EBD7
:107F8000470101230AEB810100F0FEFD8DE80700A7
:107F900064107F1C002CEED1194F7F44AE3F19E0D6
:107FA000E80715D007EB04100DF1180A90E80E0051
:107FB0008AE80E00C068F04201D198190890324654
:107FC000012306A903A800F0DFFD03AB83E8070047
:107FD0006D10641C002DE3D14FF001033246694659
:107FE000B8F1000F03A802D000F0A4FD01E000F0FA
:107FF000CBFDC9E90001C9F808200AB0BDE8F08747
:10800000C0CB000010B50446AFF300802046BDE8A9
:108010001040FEF74EB9002801D000F069B8704753
:1080200010B5012805D0002103A000F067F8012059
:1080300010BD09A1F8E7000053494752544D454D82
:108040003A204F7574206F662068656170206D65F9
:108050006D6F7279000000003A2048656170206DF4
:10806000656D6F727920636F7272757074656400EC
:108070004FF0013C50F8042B51F8043B9A4221D1B7
:10808000A2EB0C03934313EACC1317D150F8042B43
:1080900051F8043B9A4215D1A2EB0C03934313EA27
:1080A000CC130BD150F8042B51F8043B9A4209D160
:1080B000A2EB0C03934313EACC13DBD04FF0000088
:1080C000704700BFD01A01BAB1FA81F101F018016E
:1080D00022FA01F0CB40C1F12001DBB2C0B2C01ADC
:1080E0002CFA01F3D11A914311EAC311E6D170477A
:1080F00001491820ABBEFEE72600020070B5054618
:108100000C460A2000E06D1C00F011F835B128780B
:108110000028F8D102E0641C00F009F814B12078BE
:108120000028F8D1BDE870400A20AFF3008008B500
:1081300069468DF800000320ABBE08BD2DE9FF4F56
:108140001F464FF03C0987B04FF00042DDE91410A4
:1081500001F10108DDF858A002EA40500390002028
:1081600005908346054604460490B969461E089862
:108170008847AAF1010A0290BAF1000F3BDD02988C
:108180002E2815D01021FFF793FB00282EDB4FF08F
:10819000010B0599014317D0B9F1000F0BDB4A46DB
:1081A000C11700F0F5F905430C43A9F1040905E0F6
:1081B000012004900BE008B145F001050120059075
:1081C000049820B9361D02E0049800B1361FB96941
:1081D000089808F101088847BBF1000FAAF1010ACD
:1081E0000290C9D00999C1F80080C5E702987028AB
:1081F00008D0502806D0F96908988847BBF1000FCD
:1082000014D04FE0002002900120BBF1000F049039
:1082100009D0B969089808F101088847AAF101094D
:10822000B9F1000F07DCF969089888476FF0010081
:108230000BB0BDE8F08F2B2804D02D280CD14FF0C7
:10824000FF300490B969089808F101088847A9F13E
:108250000109B9F1000FE6DD411CE4D00A21FFF766
:1082600027FB0028DFDB029908F1010801EB8101FF
:1082700000EB41000290B969089888470A21FFF78E
:1082800017FB099AA9F10109B9F1000FC2F80080A2
:1082900001DD0028E7DAF96908988847049902980F
:1082A00000FB016655EA040004D004F040410900D7
:1082B00002D006E0039898E0A40044EA9574AD006B
:1082C000B61E04F00041080002D16D196441761E0B
:1082D000159810F0240F03D04FF00B095C4803E011
:1082E0004FF028096FF07D008246564507DAAAEB69
:1082F00006018944B9F1410F01DD4FF04109012028
:108300000021A9F1010200F043F9024628400B4682
:108310002140084301D0012100E00021501E0291BC
:1083200043F1FF3128402140084301D0012000E003
:1083300000200299834651EA0B014FD000210846E4
:108340004FF00000039900F4400039B100EB8000C9
:108350004FF4400100EBD07001EA60008015012865
:1083600002DD4FF0FF3000E013D0401C36D0029801
:1083700060B3BBF1000F0CD14A460120002100F090
:1083800007F928402140084301D0012000E00020E7
:10839000E0B101204A46002100F0FAF803464019F6
:1083A0000A4661412D1A8C4111D3B9F1400F09DD04
:1083B000159810F0240F02D0AAF1340603E0AAF1B8
:1083C000170600E0761C00254FF0004406E05B1E17
:1083D00042F1FF3220EA030521EA0204CAF101005A
:1083E000B04206DA1B490398084301900020009030
:1083F0000EE0039AC4F3D321E80A0A43164940EA7F
:1084000044500A433146CDE90002684603F082FD3C
:10841000159810F0240F0BD01598C00715D13868A7
:10842000DDE90012031D3B600068C0E900120CE0AA
:1084300002A8694603F008FD1598C00705D1386801
:10844000029A011D3960006802604046F0E60000B3
:1084500002FCFFFF0000F07F0000F03F2DE9FF4F1E
:1084600092461D4685B04FF00041DDE9124BDDE933
:1084700014727F1E01EA4B50414940F0FF4940EA27
:108480000108002122F020004928049102D04E2842
:1084900028D04CE03BA0012607C88DE80700A96959
:1084A0000698641C88477F1E014606D41DF8060006
:1084B00018B121F0200181420BD0E9690698884764
:1084C000032E34D0082E32D06FF0010009B0BDE881
:1084D000F08F761C032E01D0082EE0D1601CCAF864
:1084E0000000DCE7A9690698641C88477F1E2AD42F
:1084F00020F02000412826D1A9690698641C8847ED
:108500007F1E20D420F020004E281CD1A969069897
:10851000641C88477F1E48F4002849F48009CAF883
:10852000004001D4282806D0E969069888475FEA08
:10853000CB7012D022E0A9690698641C88477F1E80
:1085400001D4002803DAE96906988847BCE729289E
:10855000F1D1641CCAF80040E9E71BF0240F07D0F2
:1085600028680499031D2B600068C0E9001805E025
:108570002868021D2A600068C0F800902046A5E720
:108580000000F07F494E46494E4954590000000012
:10859000B2F120030AD5C2F1200301FA02F120FA58
:1085A00003F300FA02F041EA0301704700FA03F115
:1085B0004FF0000070475FEA400C08BF91F0000FD9
:1085C0004FEA8C234FEAC12243EA51514FEA1C5033
:1085D00018BF00F5F0404FEA300018BF41F00041ED
:1085E0005FEA6C5C00F02980BCF1FF3F08BF40F0FF
:1085F00080407047130C06BF12044FF0100C4FF070
:10860000000C130E04BF12020CF1080C130F04BF70
:1086100012010CF1040C930F04BF92000CF1020C38
:10862000D30F04BF52000CF1010C11464FF00002B1
:10863000A0F11F00A0EB0C00704711F0004F08BF25
:10864000704731F000413FF4D5AF0B0C06BF090471
:108650004FF0100C4FF0000C0B0E04BF09020CF190
:10866000080C0B0F04BF09010CF1040C8B0F04BFA5
:1086700089000CF1020CCB0F04BF49000CF1010C76
:10868000CCF12003A0EB0C0022FA03F302FA0CF267
:1086900041EA030100F10100704720F07F4C80EABD
:1086A000030023F07F47ACEB070303F57C5300F096
:1086B000004003F1FF032DE980494FEA154B09B44F
:1086C0004FEA144325EA0B4E24EA03480FF204262E
:1086D00006EB132749083E785FEA320203FB066780
:1086E000C7F5000707FB06F64FEA54374FEAD646B0
:1086F00006F1020607FB066CCCF1005C4FEA1C4752
:108700002CEA074C07FB06F40CFB06F504EB1546B8
:108710004FEA961634BF00204FF000404FEAD137A1
:1087200006FB07FC4FEA1C4C0CFB0BF7D21B03FBB0
:108730000CF761EB07010CFB0EF7B0EB074072EB97
:1087400017420CFB08F734BFA2EB0742B2EB07421B
:1087500061EB17414FEA0C444FEA910706FB07FC17
:108760004FEA1C4C0CFB0BF7B0EBC74072EB5732D7
:1087700003FB0CF734BFA2EBC742B2EBC74261EB7D
:1087800057310CFB0EF7B0EBC70072EB57720CFBC6
:1087900008F734BFA2EBC702B2EBC70261EB577117
:1087A000039F4FEA816141EA921104EBCC044FEA46
:1087B000D1374FEA826206FB07FC42EA90124FEA89
:1087C00080604FEA1C4C0CFB0BF7D21B03FB0CF731
:1087D00061EB07010CFB0EF7B0EB074072EB1742A1
:1087E0000CFB08F734BFA2EB0742B2EB074261EB88
:1087F00017414FEA8C554FEA910704EB9C2406FB86
:1088000007FC4FEA1C4C0CFB0BF7B0EBC74072EBBC
:10881000573203FB0CF734BFA2EBC742B2EBC7429F
:1088200061EB57310CFB0EF7B0EBC70072EB5772E0
:108830000CFB08F734BFA2EBC702B2EBC70261EB37
:10884000577115EB4C254FEA816141EA92114FEACD
:1088500082624FEAD13742EA901206FB07FC44F1EC
:1088600000044FEA80604FEA1C4C0CFB0BF7D21B54
:1088700003FB0CF761EB07010CFB0EF7B0EB0740B5
:1088800072EB17420CFB08F734BFA2EB0742B2EBC6
:10889000074261EB174115EB1C154FEA813141EAA4
:1088A00092414FEA823242EA90424FEA80304FEAE8
:1088B0000C7644F1000448EA03434EEA0B484FF0BB
:1088C000000EB2EB080C71EB030724BF6246394679
:1088D0004EEB0E0E4FF0000B0018524149414BEB8E
:1088E0000B0BB2EB080C71EB03077BF1000B24BF01
:1088F000624639464EEB0E0E4FF0000B0018524107
:1089000049414BEB0B0BB2EB080C71EB03077BF10E
:10891000000B24BF624639464EEB0E0E51EA0207A9
:1089200018BF46F0010616EB0E7655F1000254F121
:10893000000103D5BDE88901BDE80088BDE88901D3
:10894000BDE80048B619524141EB0101A3F1010312
:10895000704780807F7E7D7C7B7A797877767675AC
:108960007473727171706F6E6E6D6C6C6B6A6A6924
:108970006868676666656464636362616160605FBE
:108980005F5E5E5D5D5C5C5B5B5A5A595958585737
:10899000575656555555545453535252525151509F
:1089A00050504F4F4F4E4E4D4D4D4C4C4C4B4B4BF2
:1089B0004A4A4A4949494848484747474746464638
:1089C0004545454444444443434343424242424173
:1089D0004141000046EA0646A3F570534FEA1646A9
:1089E00046EA42564FEAD22242EA415210B54FEAD5
:1089F000D121A3F1010300F02FF820F0004000F195
:108A0000020C00F0004701EB00501146BCF5006F6E
:108A100040EA070000D210BDBAF1000F0AD01CB521
:108A200003B44FF004004FF004014FF000000FBCFE
:108A3000BDE810404FF00001BBF1010FB9BF044881
:108A40004FF0FF310348002140EA070010BD00BF8E
:108A5000FFFFEF7F0000F07F002B9C4630D47700B3
:108A60002BD01CB54FEA370703B44FF010004FF07E
:108A70001001BAF1000F06D0BCF1000FDCBF40F0CE
:108A8000080040F008014FF000000FBCBDE81040A6
:108A90000BF1010BBBF1010F08BF5FEA170722BF03
:108AA00012F1010211F101014FF0004143F1000305
:108AB00000F0004043EA00007047F9D35708D0E7C0
:108AC00046EA064613F1400F4FEA16461FDD13F142
:108AD000200FDFBF16430A46002120335B42BED081
:108AE000C3F1200746EA064602FA07F74FEA1646A0
:108AF00046EA0706C3F1200722FA03F201FA07F754
:108B000021FA03F14FF0000342EA0702A7E746EA21
:108B1000020646EA06464FEA164646EA0106BCBF8A
:108B200046EA0646360C4FF000034FF000024FF0C5
:108B3000000194E72DE9804C9A46934670B491E881
:108B4000380007C831EA400C48BF34EA430C03D56B
:108B5000FFF7A3FDFFF780FFF0BCBDE8008C2DE917
:108B6000804C9A46934670B491E8380007C831EAC1
:108B7000400C48BF34EA430C03D5FFF78EFDFFF7E6
:108B800029FFF0BCBDE8008C2DE9804C9A46934645
:108B900070B491E8380007C810F0804F08BF13F098
:108BA000804F03D100F01AF8FFF756FFF0BCBDE884
:108BB000008C2DE9804C9A46934670B491E83800B9
:108BC00007C810F0804F08BF13F0804F03D100F0AA
:108BD00005F8FFF7FFFEF0BCBDE8008C20F07F47F2
:108BE00080EA030023F07F4C07EB0C03A3F57C53D2
:108BF00000F00040A3F1FE0392F0000F00F0B380FC
:108C000095F0000F00F077802DE901494FEA1140FF
:108C10004FEA144621EA004800FB06FC24EA064716
:108C200008FB06F607FB08F800FB07F718EB0648F9
:108C30004CEB164C4FEA124B18EB07484FEA15461F
:108C40004CEB174022EA0B4E0BFB06FC25EA0647CD
:108C50000EFB06F607FB0EFE0BFB07F71EEB064EA0
:108C60004CEB164C4FF000061EEB074E4CEB174B2F
:108C700018EB0B0840F1000018EB0E0B58EB000846
:108C800040F100008F1A4FF000013CBFC943661B42
:108C900014BFB5EB040C00213CBFC943F61B4FEADF
:108CA00017444EEA8E0E27EA04454FEA1C4704FBA0
:108CB00007622CEA074C05FB07F70CFB05F604FBE3
:108CC0000CFC16EB074642EB174216EB0C4642EB48
:108CD0001C421BEB060658EB0202414146EA9E0687
:108CE00001D5BDE80189B619524141EB0101A3F15B
:108CF0000103BDE801894FEA14454FEA114724EA10
:108D0000054621EA074C05FB07F406FB07F70CFBB9
:108D100006F105FB0CFC11EB074144EB17444FEA4D
:108D2000124711EB0C4144EB1C4422EA074C05FBB3
:108D300007F206FB07F70CFB06F605FB0CFC16EB2F
:108D4000074642EB174216EB0C4642EB1C456A18ED
:108D500054F1000148BF7047B619524141EB01017F
:108D6000A3F10103704795F0000F37D04FEA11428D
:108D70004FEA144721EA024624EA074C02FB07F1B6
:108D800006FB07F70CFB06F402FB0CFC14EB074494
:108D900041EB17414FEA154714EB0C4441EB1C41E2
:108DA00025EA074C02FB07F506FB07F70CFB06F666
:108DB00002FB0CFC16EB074645EB174516EB0C4681
:108DC00045EB1C42121951F1000148BF7047B6191A
:108DD000524141EB0101A3F1010370474FEA1445F1
:108DE0004FEA114724EA054621EA074C05FB07F143
:108DF00006FB07F70CFB06F24FF0000605FB0CFC28
:108E000012EB074241EB174112EB0C4251EB1C41B4
:108E100048BF7047921841EB0101A3F1010370476D
:108E20004FF0E021096921F004014FF0E0221161C7
:108E3000C21700EB5272C2F3C702074B1A701946F1
:108E4000097801EB4102C2EBC1114FF6FF7202EA51
:108E5000C101024A118070476E0C00206C0C00208A
:108E600001460D4A12884A434FF0E0235A6100221E
:108E70009A6101221A6100BF4FF0E022106900F0F0
:108E800001021AB100F48032002AF5D000224FF01E
:108E9000E0231A619A6170476C0C002070B504469B
:108EA0000B48FDF7CFFC05462046FDF7CBFC2844D8
:108EB000801CB0F5806F01D3002070BD05A104486F
:108EC000FDF7DFFC21460248FDF7DBFC0120F4E75B
:108ED000080000202F00000010B50848FDF7B2FC84
:108EE000044600E0641E002C03DD0448005D2F28CA
:108EF000F8D100200149085510BD000008000020ED
:108F000030B5044604254FF4302000F085F80546BE
:108F1000042D17D10C48006940F002000A4908618D
:108F200008464461006940F0400008614FF4302079
:108F300000F072F805460448006941F6FD710840EA
:108F400001490861284630BD0020024004200B4939
:108F5000C96801F0010109B101200EE00749C968A3
:108F600001F0040109B1022007E00449C96801F0D9
:108F7000100109B1032000E00420704700200240E6
:108F80000348006940F08000014908617047000013
:108F90000020024078B506460C46042500200090CB
:108FA000E80200F039F80546042D24D11348006981
:108FB00040F00100114908613480E80200F02CF80B
:108FC0000546042D10D1B01C0090200C009908809B
:108FD000E80200F021F805460848006941F6FE71F4
:108FE00008400649086106E00448006941F6FE7140
:108FF000084002490861284678BD00000020024070
:1090000002480349486003484860704723016745A8
:1090100000200240AB89EFCD00B502460423FFF7E4
:1090200095FF034603E0FFF791FF0346521E012B15
:1090300001D1002AF7D102B90523184600BD00006E
:1090400051B18200A2F1C042126842F001038200D5
:10905000A2F1C042136009E08200A2F1C04212688E
:10906000034B1A408300A3F1C0431A60704700000D
:10907000FEFF0F00D0E901121143C26811430269DB
:1090800011434269114382691143C2691143026A63
:109090001143426A1143826A1143C26A1143026B4F
:1090A000114302689200A2F1C04211608168082950
:1090B0000BD101688900A1F1C041096841F040026B
:1090C00001688900A1F1C0410A60416B0968426BE7
:1090D000526841EA0211426B926841EA0221426BF6
:1090E000928941EA0241426B128A41EA0251426B83
:1090F000127D41EA0261426B926911430268521C7F
:109100009200A2F1C0421160C16AB1F5804F1BD13B
:10911000816B0968826B526841EA0211826B926826
:1091200041EA0221826B128A41EA0251826B127D6E
:1091300041EA0261826B9269114302689200A2F1D6
:10914000C042C2F8041107E06FF070420168890064
:10915000A1F1C041C1F8042170472DE9F041024658
:1091600000250026002000230024002791F803C0DA
:109170000CF00F0591F803C00CF0100CBCF1000FBF
:1091800003D091F802C04CEA050591F800C0BCF18B
:10919000000F31D0146800202BE04FF0010C0CFAC6
:1091A00000F3B1F800C00CEA03069E4220D1830010
:1091B0004FF00F0C0CFA03F7BC4305FA03FC4CEA22
:1091C000040491F803C0BCF1280F06D14FF0010C44
:1091D0000CFA00FCC2F814C00AE091F803C0BCF11C
:1091E000480F05D14FF0010C0CFA00FCC2F810C07A
:1091F000401C0828D1D31460B1F800C0BCF1FF0FA7
:1092000034DD546800202EE000F1080C4FF0010816
:1092100008FA0CF3B1F800C00CEA03069E4221D113
:1092200083004FF00F0C0CFA03F7BC4305FA03FC64
:109230004CEA040491F803C0BCF1280F05D100F1F9
:10924000080C08FA0CF8C2F8148091F803C0BCF1BD
:10925000480F07D100F1080C4FF0010808FA0CF88C
:10926000C2F81080401C0828CED35460BDE8F081BD
:10927000F0B50A46002300240021002500F0004636
:10928000B6F1004F02D11D4EF16901E01B4E71682D
:10929000C0F3034583B200F44016B6F5401F08D171
:1092A00021F07061154E766826F07066134F7E606F
:1092B00012E000F48016B6F5801F06D1032606FAE8
:1092C00005F4A14341F0706106E0460D360103FA52
:1092D00006F6B14341F0706122B1460D360103FA42
:1092E00006F6314300F00046B6F1004F02D1034EBE
:1092F000F16101E0014E7160F0BD0000000001402D
:1093000010B504461B48844204D10121042001F019
:109310000BFB2EE01848844204D10121082001F003
:1093200003FB26E01548844204D10121102001F0FE
:10933000FBFA1EE01248844204D10121202001F0F2
:10934000F3FA16E00F48844204D10121402001F0D5
:10935000EBFA0EE00C48844204D10121802001F098
:10936000E3FA06E00948844203D10121801501F0A7
:10937000DBFA10BD00080140000C01400010014064
:109380000014014000180140001C01400020014071
:109390000246002093680B400BB1012000E0002042
:1093A000704741617047016170470000002001492A
:1093B00008707047B016002030B50446002540F212
:1093C0003F1340F2DF120021084601F0C1F92C20C2
:1093D0000649088000BF05E000BF4FF0C24004808E
:1093E00000BF6D1CB5F5163FF6D330BDFEFFFF6024
:1093F0002DE9F04306460F4614461D464FF000087F
:10940000C146681E83B2601E82B23946304601F002
:109410009FF92C200D490880B04612E0B9460AE0B9
:1094200000BF0B4800884FF0C241088000BF09F11F
:1094300001001FFA80F9A945F2DB08F101001FFACB
:1094400080F8A045EADBBDE8F0830000FEFFFF6086
:10945000120C00202DE9FF4F89B082460F461446BA
:109460004FF000090026FF2C03DA04EBC40086004D
:109470001CE04AF2A17084420ADB4AF2F170844295
:1094800006DCA4F52740223800EBC00086000DE082
:109490004AF24010844209DB4AF28B10844205DC18
:1094A000A4F52040703800EBC0008600242206F5A9
:1094B0000011684602F0B8FB4FF000083AE0484659
:1094C000411C01F0FF091DF8000002044846411C40
:1094D00001F0FF091DF8000042EA002049464A1C3D
:1094E00002F0FF091DF8011040EA010B002517E00A
:1094F0000BF4000038B1781901B2114802885046C7
:1095000000F0A0FB08E00C9830B1781901B20D48CA
:109510000288504600F096FB4FEA4B0B681CC5B220
:10952000182DE5DB0AF101000FFA80FA08F10100BD
:1095300000F0FF08B8F10C0FC1DB0DB0BDE8F08FF3
:10954000100C0020120C00202DE9F84F04468A462A
:1095500016461F464FF00009002000908346002E5B
:1095600002DA76424FF0010B00253FE0781B401EE7
:10957000294951F82000B6FBF0F00A21B0FBF1F2C6
:1095800001FB1208009820BBB8F1000F14D1781E1F
:10959000A84211DD0B98012809D12022514620460E
:1095A0000A9BFFF757FF04F10C0004B203E009F136
:1095B000010000F0FF0917E001200090BBF1010F4E
:1095C00007D1A4F10C0108B22D2251460A9BFFF7E6
:1095D00041FF08F13002514620460A9BFFF73AFF4F
:1095E00004F10C0004B200BF681CC5B2BD42BDDB73
:1095F0000CE02022514620460A9BFFF72BFF04F186
:109600000C0004B2A9F1010000F0FF09B9F1000F4C
:10961000EFDCBDE8F88F0000AC4101082DE9FF4FF9
:1096200083B0054692461E46DDF840B04FF0000973
:10963000002400200290002150460AF009FB01D8C6
:10964000202000E02D20074601233A4628460499B1
:10965000FFF700FF05F10C0005B2002150460AF0AB
:10966000F7FA01D8504601E08AF000408246002413
:109670002BE0711E091B4D4A52F821000AF0D4F963
:109680000146019050460AF09DF880460AF0ACF978
:109690000A21B0FBF1F201FB120727B9029810B9B9
:1096A000701EA0420FD101200290012307F1300269
:1096B00028460499FFF7CEFE05F10C0005B209F12A
:1096C000010000F0FF09601CC4B2B442D1DB0123E9
:1096D0002E2228460499FFF7BDFE05F10C0005B2C5
:1096E00009F1010000F0FF09304951F82B000AF0A0
:1096F0009BF9074651460AF0DFF98246504609F0C9
:10970000C7FF00222A4BCDE9000109F0DDFC074626
:1097100009F0A8FC8246504609F0BAFF074605F05A
:109720006DF9CDE9000109F09DFC8246002425E099
:10973000ABF10101091B1D4A52F821000AF074F92E
:109740000146019050460AF03DF880460AF030F993
:109750000A2190FBF1F201FB1200303087B20123A5
:109760003A4628460499FFF775FE05F10C0005B24C
:1097700009F1010000F0FF09601CC4B25C45D7DBB1
:109780000CE00123202228460499FFF763FE05F12F
:109790000C0005B209F1010000F0FF0906EB0B0017
:1097A0004845EEDC07B0BDE8F08F0000AC41010891
:1097B0000000E03F2DE9FF4F93B082460E4614466D
:1097C0004FF0000800BF60787F280BDA61782078BE
:1097D0008138BE2202FB0010403800EBC0004FEA87
:1097E000C0090AE0617820788138BE2202FB0010AF
:1097F000413800EBC0004FEAC009482209F540118A
:1098000001A802F011FA002738E04046411C01F09F
:10981000FF0801A9085C02044046411C01F0FF0852
:1098200001A9085C42EA002041464A1C02F0FF08F8
:1098300001AA515C40EA010B002517E00BF400007F
:1098400038B1701901B210480288504600F0FAF998
:1098500008E0169830B1701901B20C4802885046E1
:1098600000F0F0F94FEA4B0B681CC5B2182DE5DB90
:109870000AF101000FFA80FA781CC7B2182FC4DB76
:1098800017B0BDE8F08F0000100C0020120C002073
:109890002DE9F0470646884615469946DDF820A092
:1098A0000024002717E04B462A464146304600F088
:1098B00016F8044614B92846BDE8F08704F00F00F6
:1098C00000EB400006EB800006B204F00F003844C5
:1098D000C7B205EB14155745E5DB2846ECE72DE943
:1098E000F04105460E4614461F460CB1207810B9CB
:1098F0000020BDE8F0812078812807DA22783B46F5
:1099000031462846FFF7A6FD1120F2E7204605F074
:1099100049FE18B9204605F025FE50B1607821783F
:1099200040EA01223B4631462846FFF793FD2120BD
:10993000DFE73B46224631462846FFF73BFF222021
:10994000D7E72DE9F04106460F4614469846002514
:1099500013E04346224639463046FFF7C0FF05462E
:1099600015B92046BDE8F08105F00F0000EB40007E
:1099700006EB800006B204EB1514EAE72DE9FC4182
:1099800004460D461646CDE90056B4F90630B4F942
:109990000420B4F90210B4F9000000F002F8BDE8A8
:1099A000FC812DE9FF4F85B007468846129807F0E5
:1099B0005BFD00EB40004FF6FF7101EA800907985C
:1099C000C01B84B20898A0EB080085B209EB040024
:1099D000401E90FBF4F0C6B2182095FBF0F0B042A8
:1099E00003DA182095FBF0F0C6B2A14501DB002098
:1099F00002E0A4EB090040101FFA80FB06EB4600D2
:109A0000B5EBC00F01DC002004E006EB4600A5EB3F
:109A1000C000401080B2049007EB0B0080B20390AE
:109A2000049840441FFA80FA00200290029016E049
:109A30000C2094FBF0F0C0B2019000900FFA8AF174
:109A4000039800B2DDE91223FFF722FF12900AF11A
:109A500018001FFA80FA0298401CC0B202900298C7
:109A6000B042E5DB09B0BDE8F08F2DE9F34F85B0DA
:109A70000546AC89EE89B5F90070B5F90280B5F9F3
:109A80000490B5F906A000F02FFC049000F032FC21
:109A90000390069808B1E88A00E0288A02900698A8
:109AA00008B1688B00E0A88A0190069808B1288B5D
:109AB00000E0688A0090029800F04AFC08EB04017C
:109AC0003819224600F027FA08EB0401A9EB04023A
:109AD000501E224600F01FFAAAEB0402511E38194C
:109AE000224600F018FAAAEB0402511EA9EB040268
:109AF000501E224600F00FFA4FF0000B31E0A9EBA8
:109B000004039AB208EB0B0399B23B1998B200F028
:109B1000F7FBA9EB04039AB2AAF10103A3EB0B0331
:109B200099B23B1998B200F0EBFBAAEB04039AB28E
:109B300008EB040399B207EB0B0398B200F01AFC90
:109B4000AAEB04039AB208EB040399B2A9F101034A
:109B5000A3EB0B0398B200F00DFC0BF101001FFA10
:109B600080FBB345CBDB019800F0F2FBA21B08EBB6
:109B70000401381900F0CFF9A21B08EB0401A9EB8E
:109B80000403581E00F0C7F9A21BAAEB0403591ED8
:109B9000381900F0C0F9A21BAAEB0403591EA9EB67
:109BA0000403581E00F0B7F908EB060CA4441FFA92
:109BB0008CF3A9EB040C1FFA8CF208EB060C1FFACD
:109BC0008CF107EB040C1FFA8CF000F02BFBAAEBD6
:109BD000060CACEB040C1FFA8CF3A9EB060C1FFA75
:109BE0008CF208EB060CA4441FFA8CF107EB060C70
:109BF0001FFA8CF000F016FBAAEB060C1FFA8CF390
:109C0000A9EB040C1FFA8CF2AAEB060CACEB040CCB
:109C10001FFA8CF107EB040C1FFA8CF000F002FB2A
:109C2000009800F095FB00222846A968FFF7A6FEE1
:109C3000049800F087FB039800F08AFB07B0BDE8AA
:109C4000F08F0000F0B504460D4616461348007824
:109C5000A0B11248B0F90200A0420EDC0F48B0F9E2
:109C60000600A04209DD0D48B0F90400A84204DC5A
:109C70000A48B0F90800A84200DCF0BDABB2A2B2BD
:109C8000A9B2A0B200F064FD2C200549088000BFF5
:109C9000881C068000BF00BFEFE70000B016002060
:109CA000FEFFFF6030B504460D462B46224629468E
:109CB000204600F04DFD2C200449088000BF0448D8
:109CC0000088891C088000BF30BD0000FEFFFF60D7
:109CD000100C00202DE9F74F88B00546688A1FFA5E
:109CE00080FB288B80B207902C896E89A88906900A
:109CF000E88A0590A88B0490B5F90080B5F9027048
:109D0000B5F90490B5F906A000F0EEFA039000F062
:109D1000F1FA0290069800F01BFB391908EB0400D9
:109D2000224600F0F8F83919A9EB0402501E224629
:109D300000F0F1F807EB040C1FFA8CF3A9EB040C0C
:109D40001FFA8CF2B9B208EB040C1FFA8CF000F089
:109D500069FA07EB0B0C1FFA8CF31FFA89F207EB79
:109D6000040C1FFA8CF11FFA88F000F05BFA002057
:109D700001902CE0AAEB04039AB207EB0B0399B213
:109D8000019B434498B200F0F5FAAAEB04039AB29F
:109D900007EB0B0399B2A9F10103DDF804C0A3EBB3
:109DA0000C0398B200F0E6FAA9EB04039AB2AAF108
:109DB0000103DDF804C0A3EB0C0399B208EB040324
:109DC00098B200F09DFA0198401C80B20190019871
:109DD000B042CFDBAAEB0402511E08EB040022467E
:109DE00000F099F8AAEB0402511EA9EB0402501EE0
:109DF000224600F090F8059800F0AAFA07EB0B0E47
:109E0000DDF81CC0F4441FFA8CF3A9EB060C1FFA12
:109E10008CF207EB0B0C1FFA8CF108EB060C1FFA07
:109E20008CF000F0FFF9049800F092FAA21BAAEB64
:109E30000403591E08EB040000F06DF8A21BAAEB06
:109E40000403591EA9EB0403581E00F064F8AAEBA2
:109E5000060CACEB040C1FFA8CF3A9EB060C1FFAF2
:109E60008CF207EB0B0EDDF81CC0F4441FFA8CF1EA
:109E700008EB060C1FFA8CF000F0D4F9AAEB060CE4
:109E80001FFA8CF3A9EB060CACEB040C1FFA8CF256
:109E9000AAEB060CACEB040C1FFA8CF108EB060CD9
:109EA000A4441FFA8CF000F0BDF9E88900F050FAE4
:109EB00008EB040108B2002307F1080109B2099A6E
:109EC000FFF73FFDA88A00F043FA00210A9807EB4C
:109ED0000B0ECDE90001DDF81CC0F4440FFA8CF341
:109EE000A9EB060CACF10C0C0FFA8CF207EB0B0C87
:109EF0000FFA8CF108EB060C0CF10C0C0FFA8CF03D
:109F0000FFF74FFD039800F01DFA029800F020FAC9
:109F10000BB0BDE8F08F2DE9F74F90B0044617461F
:109F200017B913B0BDE8F08FA2460F94119800EB5B
:109F3000070BCDF838B0DDF838B0BBF5A07F05DAF7
:109F40000E9A91B20F9A90B2FFF7ACFE0B940D945B
:109F50001198C01B0A900C900C98002805DB0C9AF5
:109F600091B20D9A90B2FFF79DFEE019069009900C
:109F70001198059008900998B0F5F07F07DA089AD3
:109F800091B2099EB0B2FFF78DFE099E01E04FF439
:109F9000F076119DE01B03900398002801DA002061
:109FA0000390B2B2A9B2039B98B200F0A9F9A4EB56
:109FB0000708C146119804900790B8F1000F05DB1F
:109FC000079A91B21FFA88F0FFF76CFE012F00D1BB
:109FD000A7E77800C0F103000090002002900197ED
:109FE00018E10098002806DA02988000801D009988
:109FF000084400901FE0DDE90110401A80000A309B
:10A000000099084400900198401E01900E98401E4F
:10A010000E90ABF1010B0C98401C0C900A98401C60
:10A020000A900998401E099008F101080698401E00
:10A03000069009F101090298401C02900F98401CFB
:10A040000F90AAF1010A0D98401C0D900B98401E2C
:10A050000B900898401C08900798401C07900598A2
:10A06000401E05900498401E04900F98B0F5F07FB4
:10A0700008DC0E98002805DB0E9A91B20F9A90B278
:10A08000FFF710FEBAF1000F08DBBBF1000F05DB94
:10A090001FFA8BF11FFA8AF0FFF704FEBAF1000FE6
:10A0A00017DBCDF80CA05D46B5F5A07F01DD4FF4C0
:10A0B000A075002D00DA0025CAEB4406B6F5F07F46
:10A0C00001DD4FF4F076B2B2A9B2039B98B200F072
:10A0D00017F90D98B0F5F07F09DC0C98B0F5A07F6A
:10A0E00005DC0C9A91B20D9A90B2FFF7DBFD0B984C
:10A0F000002809DB0A98B0F5A07F05DC0A9A91B226
:10A100000B9A90B2FFF7CEFD0B98002818DB0B9846
:10A1100003900A9DB5F5A07F01DD4FF4A075002DD9
:10A1200000DA00250B98C0EB4406B6F5F07F01DDA0
:10A130004FF4F076B2B2A9B2039B98B200F0E0F807
:10A140000998B0F5F07F08DC0898002805DB089A2C
:10A1500091B2099A90B2FFF7A5FDB8F1000F08DBA4
:10A160000798002805DB079A91B21FFA88F0FFF7DD
:10A1700099FDB8F1000F17DBCDF80C80079DB5F500
:10A18000A07F01DD4FF4A075002D00DA0025C8EB9B
:10A190004406B6F5F07F01DD4FF4F076B2B2A9B215
:10A1A000039B98B200F0ACF80698B0F5F07F09DC9C
:10A1B0000598B0F5A07F05DC059A91B2069A90B299
:10A1C000FFF770FDB9F1000F09DB0498B0F5A07F2F
:10A1D00005DC049A91B21FFA89F0FFF763FDB9F12B
:10A1E000000F17DBCDF80C90049DB5F5A07F01DDC5
:10A1F0004FF4A075002D00DA0025C9EB4406B6F532
:10A20000F07F01DD4FF4F076B2B2A9B2039B98B2B1
:10A2100000F076F8DDE901108842FFF6E2AE00BFFB
:10A220007FE600002DE9F04306460F4614461D4622
:10A230004FF00008C146681E83B2601E82B23946E4
:10A24000304600F085FA2C200D490880B04612E017
:10A25000B9460AE000BF0B4800884FF0C2410880B1
:10A2600000BF09F101001FFA80F9A945F2DB08F1EE
:10A2700001001FFA80F8A045EADBBDE8F08300008A
:10A28000FEFFFF60100C00202DE9F04706460F4648
:10A2900014461D46DDF820A04FF00008C146681E98
:10A2A00083B2601E82B23946304600F051FA2C204B
:10A2B0000C490880B04611E0B94609E000BF4FF0F4
:10A2C000C240A0F800A000BF09F101001FFA80F908
:10A2D000A945F3DB08F101001FFA80F8A045EBDB8C
:10A2E000BDE8F087FEFFFF6001480088704700006E
:10A2F000120C00200148008870470000100C00205C
:10A30000F0B505460E4614460027601E82B233465D
:10A310003146284600F01CFA2C20084908802F46B8
:10A3200008E000BF064800884FF0C241088000BF27
:10A33000781C87B2A742F4DBF0BD0000FEFFFF608F
:10A34000100C00200149088070470000120C00200A
:10A350000149088070470000100C002030B501242E
:10A36000034D2C702C466080E280A180238130BD9B
:10A37000B0160020F0B507460D4616462C4605E0FF
:10A3800021463846FFF78EFC601C84B2B442F7DBEE
:10A39000F0BD000010B54820FEF742FD4FF4A0606C
:10A3A00000F092FA472142F20F7001F073F901F0C8
:10A3B000B3FC01F02DFC00F0C3F900F021F900F02E
:10A3C0003FFA07F035FE48B901F0BAF94FF4E13031
:10A3D000134908600020087108F0F4FB1049086870
:10A3E00001F04CFB00200F4981F828000E4891F83D
:10A3F00028100C4A42F8210000F070FA044664204C
:10A4000005F06EF801E005F049FB00F067FA001B6B
:10A41000B0F5967FF7D34FF4967005F061F810BD54
:10A42000600D0020F81F0020F10501082DE9F05F04
:10A4300004460D4617464FF47F6B4FF0000A07EBBA
:10A4400087004FF4962101EB003605F15E0083B2E0
:10A4500004F15E0082B22946204600F079F92C20F2
:10A460001E490880002001F003FC032001F007FCD6
:10A47000C6F3074001F003FCC6F3072001F0FFFB21
:10A48000F0B201F0FCFBA9461EE0A04614E0FF205C
:10A4900001F0F5FB4FEA002AFF2001F0F0FB40EA53
:10A4A0000A0A00BF0AEA0B004FF0C241088000BF51
:10A4B00008F101001FFA80F804F15F008045E6DB37
:10A4C00009F101001FFA80F905F15F008145DCDB2D
:10A4D000012001F0CDFBBDE8F09F0000FEFFFF6012
:10A4E000F8B505460E46144604EB8400000300F55B
:10A4F00096205F231A4631460090284605F094F8CE
:10A50000F8BD000010B52F210348FCF72FF908B95A
:10A51000012010BD0020FCE70800002070B50446B3
:10A520000D464FF6FF7618480078B0B1174800780E
:10A5300038B32946204600F031F81549088008460E
:10A5400000881449088000201049087010490878D4
:10A550000121114A1268904713E00C48007880B935
:10A560000B49087800210C4A126890470848068871
:10A570004FF6FF700649088006490880012003490C
:10A580000870304670BD0000500C00205E0C0020AA
:10A590005A0C00205C0C0020540C00207CB50646B0
:10A5A0000D460024694601A801F03AFA00BF21E0F7
:10A5B00035F93400BDF80410884219DA05EBC400FF
:10A5C000B0F90400BDF80410884211DD05EBC400A9
:10A5D000B0F90200BDF80010884209DA05EBC400AA
:10A5E000B0F90600BDF80010884201DD20467CBDB0
:10A5F000601CC4B2B442DBDB4FF6FF70F7E700002B
:10A6000010B51848406940F001001649486105201E
:10A61000FEF726FC1448154948624FF0C240886294
:10A6200000200862C8610846C069C8610846C06960
:10A63000C8610846C069C8610846C069C861084663
:10A64000C06940F48070C8610846C06940F4806009
:10A65000C8610846C06940F48050C8610846C069B6
:10A66000C86110BD001002400C30014000000240E3
:10A6700000B59DB00121084600F056F901210802FD
:10A6800000F032F901200790002008900F20099077
:10A6900000200A900B900C900D90009001900320E8
:10A6A0000290002003900490059006900E900F9069
:10A6B00010900820109010201190002012901490FB
:10A6C00015901390169018901A904FF48050179090
:10A6D0008000199007A81B90CDF870D00EA8FEF747
:10A6E000C9FC01210020FEF7ABFC1DB000BD00003D
:10A6F00008B50121602000F017F903208DF8020051
:10A7000018208DF803004CF20370ADF80000694684
:10A710000948FEF722FD4FF68470ADF80000694647
:10A720000648FEF71AFD4FF40B60ADF800006946CD
:10A730000148FEF712FD08BD001401400018014059
:10A7400010B5FFF7D5FFFFF793FF00F01DF810BD20
:10A7500030B52A240B4D2C800412AD1C2C80C4B2C1
:10A760002C8014122C80D4B22C802B24AD1E2C8073
:10A770000C12AD1C2C80CCB22C801C122C80DCB2B4
:10A780002C8030BDFEFFFF6010B5C0202B49088033
:10A790000C20891C088002200880C120891E0880A6
:10A7A0004420891C0880C520891E08800020891C3F
:10A7B000088016200880802008803620891E0880A6
:10A7C0002820891C08803A20891E08805520891C71
:10A7D0000880B020891E08800020891C0880B120D4
:10A7E000891E0880B020891C0880B420891E08803A
:10A7F0000220891C0880B620891E08800220891C3E
:10A8000008800880E920891E08800020891C0880B3
:10A81000F720891E0880A920891C08805120088003
:10A820002C200880822008801120891E0880782032
:10A83000FEF716FB29200149088010BDFEFFFF60CE
:10A8400008B500204FF4A0734FF4F0720146009059
:10A8500004F0EAFE08BD000070B5002100230F22BD
:10A86000C47804B3154C246804F4E064C4F5E064CF
:10A87000210AC1F10403CA40447804FA03F1847840
:10A880001440214309010E4C0678A155047804F0C8
:10A890001F050124AC4005786D11AD0005F1E025E0
:10A8A000C5F8004109E0047804F01F050124AC401C
:10A8B000044D0678761145F8264070BD0CED00E099
:10A8C00000E400E080E100E002490143024A116037
:10A8D000704700000000FA050CED00E00148006838
:10A8E00070470000700C002029B1064A52690243EB
:10A8F000044B5A6104E0034A52698243014B5A6196
:10A90000704700000010024029B1064AD269024394
:10A91000044BDA6104E0034AD2698243014BDA61F5
:10A92000704700000010024029B1064A92690243B4
:10A93000044B9A6104E0034A92698243014B9A6195
:10A94000704700000010024010B5012000F086F9A9
:10A95000FF2000F092F910BD70B5054601220021DC
:10A96000092000F09FF9044624B91021284600F080
:10A9700059F90446FFF7E8FF0CB1012070BD002033
:10A98000FCE770B505464FF6FF7401E0601E84B227
:10A99000FF2000F072F9A84201D0002CF6D10CB9CA
:10A9A000FF2070BD0020FCE77FB56846FFF7D4FFAD
:10A9B00010B1002004B070BD9DF8000000F0C00090
:10A9C000402809D19DF809009DF8081000EB0120EE
:10A9D000401C84B2A50220E09DF8050000F00F00A5
:10A9E0009DF80A1000EBD1109DF8091001F0030149
:10A9F00000EB4100861C9DF8080080119DF80710AF
:10AA000000EB81009DF8061001F0030100EB8120AE
:10AA1000441CA6F1090004FA00F52846CAE7000024
:10AA2000F8B500F022F90721012000F0D1FA002545
:10AA300004E0FF2000F021F9681C85B20A2DF8DB44
:10AA4000142600BF95220021084600F02BF9044689
:10AA5000012C04D0301EA6F101018EB2F2D10020EB
:10AA600052490870012C4AD187224FF4D571082031
:10AA700000F018F9012847D1002506E0FF2000F07A
:10AA8000FCF80DF80500681C85B2042DF6DB9DF876
:10AA90000200012879D19DF80300AA2875D14FF64C
:10AAA000FE7600BF01220021372000F0FBF80122D2
:10AAB0009107292000F0F6F8044624B1301EA6F1D3
:10AAC00001018EB2EED1002E5FD0012200213A208A
:10AAD00000F0E8F8002858D1002506E0FF2000F03B
:10AAE000CCF80DF80500681C85B2042DF6DB9DF846
:10AAF000000000F0400018B106202C49087044E026
:10AB000004202A49087040E001220021372000F08B
:10AB1000C9F801220021292000F0C4F80446012CC4
:10AB200017DC0220214908704FF6FE7600BF012293
:10AB30000021372000F0B6F801220021292000F082
:10AB4000B1F80446BCB1301EA6F101018EB2EED1BF
:10AB500011E00120154908704FF6FE7600BF012272
:10AB60000021104600F09EF8044624B1301EA6F1E4
:10AB700001018EB2F3D12EB101225102102000F05A
:10AB800091F810B1002009490870FFF7DDFE00219F
:10AB9000012000F01DFA0548007808B10020F8BD3A
:10ABA0000CB12046FBE7AA20F9E70000140C0020B6
:10ABB0002DE9F04106460F4615461948007806284B
:10ABC00000D07F02012D0CD101223946112000F066
:10ABD00069F80446F4B96902304600F023F80446E7
:10ABE00018E001223946122000F05CF8044600BF4C
:10ABF0004FF40071304600F015F8044606F5007673
:10AC0000681E051E01D0002CF2D0012200210C206C
:10AC100000F048F8FFF798FE2046BDE8F0810000FC
:10AC2000140C002070B504460D46FE20FFF7A9FE67
:10AC300008B1012070BD04E0FF2000F01EF8207074
:10AC4000641C281EA5F101018DB2F5D1FF2000F092
:10AC500014F8FF2000F011F80020EBE710B50446CF
:10AC60002146012000F0DCF810BD10B5012000F0F5
:10AC7000F9F80120FFF7F2FF10BD10B50446214698
:10AC8000012000F0E7F9C0B210BD10B50020FFF7B9
:10AC9000E5FF00F06CF808B9002010BDFFF754FE86
:10ACA0000120FAE72DE9F04105460C4617464FF022
:10ACB0000008FFF749FEFFF7E8FF10B1FF20BDE8ED
:10ACC000F08145F04000FFF7D8FF200EFFF7D5FFD9
:10ACD000C4F30740FFF7D1FFC4F30720FFF7CDFF10
:10ACE000E0B2FFF7CAFF3846FFF7C7FF0C2D02D1CD
:10ACF000FF20FFF7C2FF4FF01F0800BFFF20FFF744
:10AD0000BCFF064606F0800030B1B8F10000A8F1A3
:10AD1000010101F0FF08F1D13046D0E770B50646D9
:10AD20000D4600F024F808B1012070BD2846FFF759
:10AD3000A4FFFD2D19D0002404E0305DFFF79DFF36
:10AD4000601C84B2B4F5007FF7DBFF20FFF795FFAE
:10AD5000FF20FFF792FFFF20FFF78FFF044604F06C
:10AD60001F00052801D00220DFE70020DDE710B535
:10AD7000002400BFFF20FFF780FFFF2801D1002043
:10AD800010BD641C6FF07F408442F3D30120F7E7CD
:10AD90002DE9F04106460F46154620480078062862
:10ADA00000D07F02012D0CD1012239461820FFF777
:10ADB00079FF044664BBFE213046FFF7AFFF04462F
:10ADC00026E016480078012809D00122002137200A
:10ADD000FFF768FF012229461720FFF763FF0122D2
:10ADE00039461920FFF75EFF04468CB900BFFC21ED
:10ADF0003046FFF793FF044606F50076681E051EF1
:10AE000001D0002CF3D0FD210020FFF787FF04467E
:10AE1000FFF79AFD2046BDE8F0810000140C0020E9
:10AE200039B1084A32F81020074B53F820301A6124
:10AE300006E0044A32F81020034B53F820305A61E0
:10AE400070470000300C0020240C002021B1028843
:10AE500042F04002028004E002884FF6BF731A40BD
:10AE60000280704710B50446022C07D10121084624
:10AE7000FFF75AFD01210548FEF7FAF9204600F0D8
:10AE800007F80021204600F0A3F810BD00023000B2
:10AE900010B594B00446354A07CA11AB07C3334A0C
:10AEA0000C3207CA0EAB07C33049183103C9CDE9CC
:10AEB0000C012E4A2032D2E900109268CDE90A0234
:10AEC00009912A492C3103C9CDE90701274A3432B7
:10AED00007CA04AB07C32549403103C9CDE90201C4
:10AEE00011A951F824000121FFF71EFD03208DF860
:10AEF000060018208DF807000CA830F81400ADF8F3
:10AF000004000EA951F8240001A9FEF726F907A8AC
:10AF100030F81400ADF8040009A951F8240001A983
:10AF2000FEF71BF902A830F81400ADF8040004A9DC
:10AF300051F8240001A9FEF710F910208DF8070040
:10AF40000B4830F81400ADF804000A4951F8240009
:10AF500001A9FEF702F9064A32F81410054A52F820
:10AF60002400FEF720FA14B010BD0000D4410108FF
:10AF7000300C0020240C00200246002013890B40D6
:10AF80000BB1012000E0002070470146888970471E
:10AF90008181704710B50022028802F441520B886B
:10AFA0004C8823438C882343CC8823430C89234338
:10AFB0004C8923438C892343CC8923431A43028041
:10AFC000838B4FF2FF74234083830B8A038210BD6F
:10AFD00030B585B004460D4624B901210803FFF7BA
:10AFE000A3FC0CE0012C04D101218803FFF78CFCA9
:10AFF00005E0022C03D10121C803FFF785FCADF861
:10B000000C500120ADF808000220ADF80600072022
:10B01000ADF810000020ADF80400ADF80000ADF868
:10B020000E004FF48270ADF802004FF40070ADF8DE
:10B030000A00074951F824006946FFF7ABFF0449AD
:10B0400051F824000121FFF701FF05B030BD0000D9
:10B05000180C002070B504460D4600BF0E4951F88B
:10B0600024000221FFF788FF0028F7D00A4951F891
:10B0700024002946FFF78CFF00BF074951F8240040
:10B080000121FFF779FF0028F7D0034951F8240088
:10B09000FFF77BFF70BD0000180C002070B5044660
:10B0A0000D4625B1A1882068FEF77DF903E0A1884F
:10B0B0002068FEF776F970BD2DE9F84F04460D467D
:10B0C00016461F46DDE90CABDDE90A892660A7803C
:10B0D000C4F80880A4F80C90C4F810A0A4F814B028
:10B0E0000E98A0610F98A083A5772068FEF708F955
:10B0F000A068FEF705F92069FEF702F9A069FEF7DE
:10B10000FFF803208DF8020010208DF80300A07FC7
:10B1100010B1A07F012804D1A189A068FEF741F9F0
:10B1200003E0A189A068FEF73EF9A089ADF8000010
:10B130006946A068FEF711F8A08BADF800006946DB
:10B14000A069FEF70AF8A18BA069FEF72CF9A08888
:10B15000ADF8000069462068FDF7FFFFA188206870
:10B16000FEF721F904208DF80300A08AADF8000055
:10B1700069462069FDF7F1FFBDE8F88F2DE9F04140
:10B1800004460D464FF0080800270026A07F30B186
:10B1900001282ED0022856D0032829D17DE000278F
:10B1A00024E04FF6FF7000EA4606A18A2069FEF708
:10B1B000EFF80643A189A068FEF7F5F800BF05F097
:10B1C000800020B1A18BA069FEF7EDF803E0A18B10
:10B1D000A069FEF7E6F800BF4FF6FF7000EA4505EC
:10B1E000A189A068FEF7DDF8781CC7B24745D8DB17
:10B1F0007DE0002724E000BF05F0800020B1A18B96
:10B20000A069FEF7D0F803E0A18BA069FEF7C9F8AA
:10B2100000BF4FF6FF7000EA4505A189A068FEF760
:10B22000C2F84FF6FF7000EA4606A18A2069FEF7D1
:10B23000AFF80643A189A068FEF7B3F8781CC7B23F
:10B240004745D8DB53E0002724E04FF6FF7000EAC3
:10B250004606A18A2069FEF79BF80643A189A068EB
:10B26000FEF79FF800BF05F0800020B1A18BA06918
:10B27000FEF799F803E0A18BA069FEF792F800BFF2
:10B280004FF6FF7000EA4505A189A068FEF78BF82C
:10B29000781CC7B24745D8DB29E0002724E000BF6F
:10B2A00005F0800020B1A18BA069FEF77CF803E0D7
:10B2B000A18BA069FEF775F800BF4FF6FF7000EA9A
:10B2C0004505A189A068FEF76CF84FF6FF7000EA0B
:10B2D0004606A18A2069FEF75BF80643A189A068AB
:10B2E000FEF761F8781CC7B24745D8DB00BF00BF46
:10B2F0003046BDE8F08170B504460E4615461C2167
:10B300002046FBF763FB66603046FBF79BFA208222
:10B31000304606F0A9F86082B5F90400B5F90010CE
:10B32000401A0C2190FBF1F0A082256070BD000056
:10B330002DE9F84304460E4617460025606808B913
:10B34000BDE8F883608AA18A88427CDDFFF7C6FAEF
:10B35000A168401A052877D9FFF7C0FAA060D4F891
:10B3600000C0BCF90630BCF90420BCF90210BCF9DD
:10B370000000FEF7F3FFE08A218A88426ADAA0899A
:10B38000401C00B2A081E18A6068405C812808DA34
:10B39000A0890C2822D1E08A401CE0820020A081F4
:10B3A0001CE0E28A6168881804F0FCF828B9E28A97
:10B3B0006168881804F0D6F840B1A0890C280DD136
:10B3C000E08A801CE0820020A08107E0A089182884
:10B3D00004D1E08A801CE0820020A081207D001D35
:10B3E000C0B20090B4F816C0636803EB0C02236887
:10B3F0001B88B4F80CC0A3EB0C0318B22368B3F994
:10B4000002103346FEF744FA2068408885B218E0FF
:10B41000228AE38AD01AA28A111D05F0B5FF00EB3B
:10B42000400021680988A289891A01EB80000FFA7F
:10B4300080F84548028829B24046FEF703FC681CA4
:10B4400085B2206802E03AE07AE003E0B0F9060055
:10B45000A842DDDC208AE18A411AA08A001F8142CD
:10B460002ADAE089401C00B2E081B4F90E000B300A
:10B470000C2190FBF1F000F0FF08CDF8008023686C
:10B480009B88B4F80EC0A3EB0C0318B2D4E90032C9
:10B49000B3F902103346FEF7FBF92068B0F9040057
:10B4A0002168B1F90010401AB4F90E10884203DC8B
:10B4B0000020A081E081E082FDF778FF42E0207E5D
:10B4C000F0BB27B1012F0CD0022F36D11CE0D4E9FC
:10B4D0000032B3F90210B3F900003346FEF731FA37
:10B4E0002BE020688088618A01EB4101A0EB81009C
:10B4F0001FFA80F8D4E90002B0F9021033460FFABF
:10B5000088F0FEF71EFA18E02068B0F90400216800
:10B51000B1F90010401A618A01EB4101A0EB8100F2
:10B52000C0F34F08D4E90032B3F902101B8843443A
:10B5300018B23346FEF705FA00BF00BF012000E055
:10B5400000E0207600BFFBE6120C002010B500F0F2
:10B5500001F810BD0CB50020019000903348006840
:10B5600040F480303149086000BF3048006800F482
:10B57000003000900198401C0190009818B9019883
:10B58000B0F5A06FF1D12948006800F4003010B187
:10B590000120009001E0002000900098012843D194
:10B5A0002348006840F01000214908600846006800
:10B5B00020F0030008600846006840F002000860C0
:10B5C0001A4840681949486008464068486008467B
:10B5D000406840F4806048600846406820F4741079
:10B5E00048600846406840F4F81048600846006823
:10B5F00040F08070086000BF0C48006800F00070E8
:10B600000028F9D00948406820F003000749486045
:10B610000846406840F00200486000BF03484068A8
:10B6200000F00C000828F9D10CBD00000010024009
:10B630000020024010B51348006840F00100114995
:10B64000086008464068104908400E4948600846AE
:10B6500000680E4908400B4908600846006820F45D
:10B66000802008600846406820F4FE0048604FF4DF
:10B670001F008860FFF76AFF4FF000600449086010
:10B6800010BD0000001002400000FFF8FFFFF6FEB2
:10B6900008ED00E038B504460D461E208DF8000088
:10B6A00002208DF8010000208DF8020001208DF8A5
:10B6B00003006846FFF7D0F80E48C06940F0040068
:10B6C0000C49C8610C480580001F04804FF6FE70CD
:10B6D00009491C390880081F008840F00100091F33
:10B6E000088005482C38008840F0010002492C39B8
:10B6F000088038BD001002402C08004010B50E48EC
:10B70000008800F00100B0B10C480068401C0B49F3
:10B7100008600846006807F00FF904F005FA0748CA
:10B720000068B0F1804F02D10020044908604FF654
:10B73000FE700149088010BD10080040700C002008
:10B74000F0B58BB0B44A07CA08AB07C3B24A0C3293
:10B75000D2E900109268CDE906020591002400BFED
:10B760004FF6FF70FDF728FE0020FEF7F1FD4FF6C3
:10B77000FF70FEF7E7FD432007F080FB074605F06A
:10B7800073FE00EB40004FF4F071A1EB8000C0F3BA
:10B790004F06432007F072FB074600233A46052177
:10B7A00030B2FEF7CEF8442007F068FB074605F0FC
:10B7B0005BFE00EB40004FF4F071A1EB8000C0F3A2
:10B7C0004F06442007F05AFB074600233A4619214A
:10B7D00030B2FEF7B6F84FF47840FEF7B9FD00241A
:10B7E00050E005AA52F8241008AA52F824000322B7
:10B7F000FEF791FB00252CE005AA32F8242091B237
:10B8000008AA32F824202A4490B2FEF74BFA05AA7F
:10B8100032F8242091B208AA32F82420521B90B2A8
:10B82000FEF740FA05AA32F824202A4491B208AA69
:10B8300032F8242090B2FEF735FA05AA32F8242017
:10B84000521B91B208AA32F8242090B2FEF72AFACD
:10B850006D1C0A2DD0DB00BF03F098FE0028FBD042
:10B86000D02000F097FA03A921F81400902000F0EE
:10B8700091FA01A921F8140000BF03F087FE002807
:10B88000FBD1641C032CACD3BDF80C00BDF8101028
:10B89000401ABDF80610BDF80820891A4843BDF8C3
:10B8A0000E10BDF81020891ABDF80420BDF808302C
:10B8B000D21A01FB1200594988610A990898401A66
:10B8C000BDF80610BDF80820891A4843DDE90912C1
:10B8D000891ABDF80420BDF80830D21A01FB120005
:10B8E0004E490860BDF80C00BDF81010401ADDE9A3
:10B8F0000912891A48430899891ABDF80E20BDF823
:10B900001030D21A01FB120044494860BDF8100003
:10B9100009994843BDF80E100A9A01FB1200BDF8C0
:10B9200004104843BDF80C105143BDF81020089B8B
:10B9300002FB1311BDF8062002FB0101BDF80E0049
:10B940005843BDF80C20099B02FB1300BDF80820EA
:10B9500002FB00103149886007990598401ABDF82C
:10B960000610BDF80820891A4843DDE90612891A35
:10B97000BDF80420BDF80830D21A01FB1200274997
:10B98000C860BDF80C00BDF81010401ADDE90612C1
:10B99000891A48430599891ABDF80E20BDF8103060
:10B9A000D21A01FB12001D490861BDF8100006996A
:10B9B0004843BDF80E10079A01FB1200BDF80410B1
:10B9C0004843BDF80C105143BDF81020059B02FB05
:10B9D0001311BDF8062002FB0101BDF80E0058430B
:10B9E000BDF80C20069B02FB1300BDF8082002FBEB
:10B9F00000100A494861A021F02000F0ABFA0028AD
:10BA00003FF4AEAE4FF6FF70FEF7A2FC0020FEF74B
:10BA100099FC0BB0F0BD00002C4201080818002072
:10BA20002DE9F04104460D46D02000F0B3F906465A
:10BA3000902000F0AFF907460F48006870430E49A8
:10BA4000496801FB07000C49896808440A4989696B
:10BA5000B0FBF1F020800848C068704306490969CE
:10BA600001FB070004494969084403498969B0FB9F
:10BA7000F1F02880BDE8F0810818002038B50446B0
:10BA80003148406940F001002F494861084680690B
:10BA900040F0040088610846806940F48040886175
:10BAA0002A48006820F47F6028490860084600683A
:10BAB00040F40B60086025208DF8000001208DF80F
:10BAC000010000208DF8020001208DF80300684677
:10BAD000FEF7C2FE1E48B0FBF4F01E4908801D4868
